:100000000C942A000C9447000C9447000C94470071
:100010000C9447000C9447000C9447000C94470044
:100020000C9447000C9447000C9447000C94470034
:100030000C9447000C9447000C9447000C94470024
:100040000C9447000C9447000C9447000C94470014
:100050000C94470011241FBECFE5D8E0DEBFCDBF12
:1000600011E0A0E6B0E0ECEDF8E002C005900D92E2
:10007000AE32B107D9F723E0AEE2B1E001C01D9284
:10008000AF34B207E1F70E94BB020C946C040C94ED
:1000900000005D9BFECF8CB90895FC018081982FF4
:1000A0009770613009F044C09130A9F028F0923087
:1000B00009F1933071F108959BB3869586958695E5
:1000C000877021E030E001C0220F8A95EAF7892F7E
:1000D000822B8BBB089598B38695869586958770FD
:1000E00021E030E001C0220F8A95EAF7892F822BA8
:1000F00088BB089595B3869586958695877021E08F
:1001000030E001C0220F8A95EAF7892F822B85BB48
:10011000089592B3869586958695877021E030E0A4
:1001200001C0220F8A95EAF7892F822B82BB08959E
:100130009130B9F028F0923029F19330A1F108956F
:100140004BB3869586958695877021E030E0B9019E
:1001500002C0660F771F8A95E2F7CB018095842352
:10016000B8CF48B3869586958695877021E030E0B4
:10017000F90102C0EE0FFF1F8A95E2F7CF018095CB
:100180008423B6CF45B3869586958695877021E002
:1001900030E0B90102C0660F771F8A95E2F7CB0104
:1001A00080958423B4CF42B38695869586958770D3
:1001B00021E030E0F90102C0EE0FFF1F8A95E2F75F
:1001C000CF0180958423B2CFFC018081982F977056
:1001D00086FF44C09130A9F028F0923009F19330A5
:1001E00071F108959AB3869586958695877021E07A
:1001F00030E001C0220F8A95EAF7892F822B8ABB53
:10020000089597B3869586958695877021E030E0AE
:1002100001C0220F8A95EAF7892F822B87BB0895A8
:1002200094B3869586958695877021E030E001C06D
:10023000220F8A95EAF7892F822B84BB089591B308
:10024000869586958695877021E030E001C0220F63
:100250008A95EAF7892F822B81BB08959130B9F0F6
:1002600028F0923029F19330A1F108954AB3869590
:1002700086958695877021E030E0B90102C0660F4F
:10028000771F8A95E2F7CB0180958423B8CF47B3D7
:10029000869586958695877021E030E0F90102C049
:1002A000EE0FFF1F8A95E2F7CF0180958423B6CF2A
:1002B00044B3869586958695877021E030E0B90134
:1002C00002C0660F771F8A95E2F7CB0180958423E1
:1002D000B4CF41B3869586958695877021E030E04E
:1002E000F90102C0EE0FFF1F8A95E2F7CF0180955A
:1002F0008423B2CFC29AC1988BBBC09A8FE39CE98A
:100300000197F1F700C00000C0980895C298EFE38C
:10031000FCE93197F1F700C00000C198EFE3FCE978
:100320003197F1F700C000008BBBC09A8FE39CE9C6
:100330000197F1F700C00000C09808950F931F9334
:10034000CF938C01862F95ED9A95F1F700004130FF
:1003500071F080580E948601C0E0F801EC0FF11D99
:100360008081811106C0CF911F910F910895805413
:10037000F1CF0E947A01CF5FF0CF85ED8A95F1F73A
:10038000000081E00E94860185ED8A95F1F700006A
:100390000895BF92CF92DF92EF92FF920F931F9337
:1003A000CF93DF93CDB7DEB72A970FB6F894DEBFB1
:1003B0000FBECDBF0E94BD0180914E0340E060E0C2
:1003C00081119CC089E790E00E949E011092430138
:1003D00010922E01CE0101967C015AE0B52ED12C4F
:1003E000C12C60E081E690E00E944D0060E082E672
:1003F00090E00E944D0060E083E690E00E944D0096
:1004000060E084E690E00E944D0061E0C6018F59F3
:100410009F4F0E944D00EFE3FCE93197F1F700C0D8
:10042000000030E020E0F901EB59FF4F8081982F68
:100430009770913009F473C008F463C0923009F4E6
:1004400070C0933009F46FC0013009F06EC0C6016E
:10045000880F991F880F991F87599F4F280F391FA1
:10046000F901D08001E010E0D0926000DD2009F4B5
:10047000B6CFF3E2DF1609F46EC08091430191E03C
:10048000980F9093430195ED9A95F1F700008F53E3
:100490000E948601C12CF701EC0DF11D8D2D6B2DF5
:1004A0000E945904905D9083D82EC3948111F3CF9C
:1004B000CE0CDF2CD11CEC14FD0409F046C08FE3F8
:1004C0009CE90197F1F700C000008091430195ED90
:1004D0009A95F1F7000080540E9486018AE20E94FA
:1004E0007A0180912E01E82FF0E0E15DFE4F9091BE
:1004F000600090838F5F80932E0171CF82E990E03E
:1005000063CF09B310E0869586958695877002C003
:10051000159507958A95E2F70170112795CF06B3D7
:10052000F1CF03B3EFCF00B3EDCF2F5F3F4F2430B8
:10053000310509F078CFFFEFCF1ADF0A84E0C81643
:10054000D10409F04ECFD12C8FCFF60182916F01EB
:100550000E947A01B0CF2A960FB6F894DEBF0FBE84
:10056000CDBFDF91CF911F910F91FF90EF90DF9062
:10057000CF90BF90089510BC8CE089B9539A549ADB
:1005800080B5806880BD80B5826080BD80B58460A4
:1005900080BD8FEF87BB8ABBC09A8FE39CE9019730
:1005A000F1F700C0000088E30E9486019FEFE1EEB2
:1005B000F4E09150E040F040E1F700C000008FE02F
:1005C0000E9486018FE39CE90197F1F700C00000CB
:1005D00081E00E948601C1E6D0E0CE010E94E400E5
:1005E00060E0CE010E944D00219690E0C536D9070B
:1005F000A1F785E690E00E94E40086E690E00E9484
:10060000E40087E690E00E94E40088E690E00E9423
:10061000E4001092600063EB70E084E491E00E94DB
:10062000650469EB70E084EC91E00E946504C1E030
:10063000C0934402C0934502C0934602C093470250
:100640006FEB70E088E492E00E94650468EC70E073
:1006500088EC92E00E946504C0934803C09349036C
:1006600083E080934A0384E080934B0311E0C4E06D
:10067000D1E08FE00E9486010E94C9010E94BD0165
:1006800040E060E08DEC90E00E949E01EFEFF1EE23
:1006900024E0E150F0402040E1F700C000000E945B
:1006A000BD0180914E038F5F80934E0380914E0376
:1006B0006091430130914D03833018F080934E03D5
:1006C00035C0643009F0B2C094E4E92E92E0F92E0E
:1006D000AFE2B1E0AD0120E090E0F70101917F01D0
:1006E000FA017191AF010717C1F02F5F2330A9F70D
:1006F0009330A9F0E8E4F3E020E090E051914D91CF
:10070000541709F491C02F5F2330C1F7933009F0DB
:100710008DC080934E0381E005C09F5FE6CF80933C
:100720004E0380E080934C0310934D0380914D0362
:10073000813009F09AC080914C03811190C01CB89F
:100740008FE40E94490010924E0310924D030E94C4
:10075000BD0140E06FE088ED90E00E949E019FEFB8
:10076000E1EEF4E09150E040F040E1F700C000001D
:100770000E94BD0140E060E084EE90E00E949E0196
:1007800020914C032C9FC0012D9F900D112441E01E
:1007900061E08C5B9E4F0E949E012FEF81EE94E002
:1007A000215080409040E1F700C000000E94BD0150
:1007B00040E060E08AEF90E00E949E0120914C03AF
:1007C0002C9FC0012D9F900D112441E061E08C53BE
:1007D0009E4F0E949E01EFEFF1EE24E0E150F040C9
:1007E0002040E1F700C000000E94BD0140E06FE042
:1007F0008CE091E00E949E018FEF91EEE4E0815049
:100800009040E040E1F700C000000E94BD0188E098
:100810000E948601FFEF20E782E0F15020408040F7
:10082000E1F700C0000025CF9F5F6DCF8F5F3111D2
:1008300043CF80934E030E94C9010E94BD0140E056
:1008400060E08DEC90E00E949E01FFEF21EE84E0DD
:10085000F15020408040E1F700C0000027CF8130F8
:1008600009F071CF1CB885E46CCF811102CF1CB8A0
:1008700087E50E94490010924E030E94BD0140E0AE
:1008800060E08AE191E00E949E019FEFE0E7F2E0E4
:100890009150E040F040E1F700C0000088E00E9485
:1008A00086012FEF83EC99E0215080409040E1F7E2
:1008B000B8CF991B79E004C0991F961708F0961BD2
:1008C000881F7A95C9F780950895FB01DC01019096
:0C08D0000D920020E1F70895F894FFCF8E
:1008DC00FF424A525A222A323A0708092F040506C7
:1008EC002A0102032B23303D2D504C45415345200A
:1008FC00454E5445522050415353574152442E2E8D
:10090C002E00504C4541534520454E5445522043F2
:10091C004F52524543542050415353574152442E49
:10092C002E2E004F776E65720041686D6564006510
:10093C006D706C6F796565004F6D617200204C4F66
:10094C0044494E472E2E2E00204C4F4747494E2EE1
:10095C002E2E200020594F555220504F53495449A8
:10096C004F4E2049532E2E2E200020594F555220E9
:10097C004E414D452049532E2E2E20005448414EB9
:10098C004B20594F552E2E2E20002050415353579B
:0E099C004152442057524F4E472E2E2E20001F
:00000001FF
