:100000000C942A000C9434000C9434000C943400AA
:100010000C9434000C9434000C9434000C94340090
:100020000C9434000C9434000C9434000C94340080
:100030000C9434000C9434000C9434000C94340070
:100040000C9434000C9434000C9434000C94340060
:100050000C94340011241FBECFE5D8E0DEBFCDBF25
:100060000E9473000C9416020C940000369A389A81
:10007000399A3A9A3B983C98349BFECF349A84B193
:1000800095B165B176B1762F6627682B792B90E014
:1000900080E00E941B0120E030E040EA5BE30E9428
:1000A000810120E030E048EC52E40E9481010E948E
:1000B000EC00CB010895C298EFE3FCE93197F1F72A
:1000C00000C00000C198EFE3FCE93197F1F700C0F0
:1000D00000008BBBC09A8FE39CE90197F1F700C049
:1000E0000000C098089510BC8CE089B9539A549AC6
:1000F00080B5806880BD80B5826080BD80B5846039
:1001000080BDCFEFC7BBCABBC09A8FE39CE9019704
:10011000F1F700C0000088E30E945B009FEF21EE32
:1001200084E0915020408040E1F700C000008FE063
:100130000E945B008FE39CE90197F1F700C000008B
:1001400081E00E945B00379A3E9A3F983D98309A32
:10015000319A3298D79A95ED9A95F1F7000081E09F
:100160000E945B0025ED2A95F1F70000C4BBD2E0A8
:1001700014E05F9BFECFCCB10E943600C73511F46E
:1001800015BBF7CFCF3421F581E085BB0E94360047
:100190008031910528F485B3877085BBAB9AF6CF83
:1001A0009C01205131092431310528F485B3877031
:1001B00085BBAC9AEBCF8497449728F485B38770BE
:1001C00085BBAD9AE3CF85B3877085BBAE9ADECF92
:1001D000C53479F6D5BBCDCF0E94600188F09F571A
:1001E00098F0B92F9927B751B0F0E1F0660F771F5B
:1001F000881F991F1AF0BA95C9F714C0B13091F051
:100200000E947A01B1E008950C947A01672F782F4B
:100210008827B85F39F0B93FCCF386957795679515
:10022000B395D9F73EF490958095709561957F4F81
:100230008F4F9F4F0895E89409C097FB3EF4909527
:100240008095709561957F4F8F4F9F4F9923A9F0AF
:10025000F92F96E9BB279395F6958795779567953E
:10026000B795F111F8CFFAF4BB0F11F460FF1BC082
:100270006F5F7F4F8F4F9F4F16C0882311F096E915
:1002800011C0772321F09EE8872F762F05C06623C3
:1002900071F096E8862F70E060E02AF09A95660F7C
:1002A000771F881FDAF7880F9695879597F9089535
:1002B00057FD9058440F551F59F05F3F71F0479517
:1002C000880F97FB991F61F09F3F79F087950895FC
:1002D000121613061406551FF2CF4695F1DF08C01B
:1002E000161617061806991FF1CF86957105610538
:1002F00008940895E894BB2766277727CB0197F9E0
:1003000008950E9494010C9405020E94F70138F0B0
:100310000E94FE0120F0952311F00C94EE010C9444
:10032000F40111240C947B010E94580170F3959FF5
:10033000C1F3950F50E0551F629FF001729FBB27DC
:10034000F00DB11D639FAA27F00DB11DAA1F649F78
:100350006627B00DA11D661F829F2227B00DA11D2B
:10036000621F739FB00DA11D621F839FA00D611DB1
:10037000221F749F3327A00D611D231F849F600DD2
:10038000211D822F762F6A2F11249F5750409AF0FB
:10039000F1F088234AF0EE0FFF1FBB1F661F771F87
:1003A000881F91505040A9F79E3F510580F00C9452
:1003B000EE010C947B015F3FE4F3983ED4F3869505
:1003C00077956795B795F795E7959F5FC1F7FE2BF2
:1003D000880F911D9695879597F9089597F99F67CE
:1003E00080E870E060E008959FEF80EC08950024BD
:1003F0000A941616170618060906089500240A948A
:1004000012161306140605060895092E0394000C0F
:1004100011F4882352F0BB0F40F4BF2B11F460FF9E
:1004200004C06F5F7F4F8F4F9F4F0895F894FFCFA9
:00000001FF
